:100000000C942A000C943F000C943F000C943F0089
:100010000C943F000C943F000C943F000C943F0064
:100020000C943F000C943F000C943F000C943F0054
:100030000C943F000C943F000C943F000C943F0044
:100040000C943F000C943F000C943F000C943F0034
:100050000C943F0011241FBECFE5D8E0DEBFCDBF1A
:1000600011E0A0E6B0E0ECE4F3E102C005900D92EF
:10007000A438B107D9F70E9455020C94A4090C9436
:100080000000DF93CF93CDB7DEB786EA0E949403DA
:10009000CF91DF910895DF93CF93CDB7DEB787EA95
:1000A0000E949403CF91DF9108950F931F93DF93E4
:1000B000CF93CDB7DEB764970FB6F894DEBF0FBE0F
:1000C000CDBF9A8B898B6B8B4C8B89899A899C01CC
:1000D0003695322F2227379527958B89882F90E0E8
:1000E000820F931F9A8389830E9475030E944100A7
:1000F00089819A81892F99270E94940389810E947E
:1001000094038C890E9494030E94880380E090E00D
:10011000A8ECB2E48B839C83AD83BE836B817C812E
:100120008D819E8120E030E04AE755E40E9401067F
:10013000DC01CB018F839887A987BA8711E06F8193
:10014000788589859A8520E030E040E85FE30E9469
:100150005B0788230CF010E0112329F081E090E088
:100160009C878B8746C011E06F81788589859A8549
:1001700020E03FEF4FE757E40E94FB0618160CF013
:1001800010E0112361F16B817C818D819E8120E0E3
:1001900030E040E251E40E940106DC01CB01BC01E9
:1001A000CD010E942D04DC01CB019C878B8712C0FE
:1001B00080E991E09E878D878D859E858C01C801A1
:1001C0000197F1F78C011E870D878B859C85019720
:1001D0009C878B878B859C85009751F717C06F8113
:1001E000788589859A850E942D04DC01CB019C8746
:1001F0008B878B859C85988B8F878F8598898C01C1
:10020000C8010197F1F78C01188B0F8764960FB620
:10021000F894DEBF0FBECDBFCF91DF911F910F913C
:100220000895DF93CF9300D000D000D0CDB7DEB7D4
:100230009D838C836E838C819D819C013695322FAA
:100240002227379527958E81882F90E0820F931F64
:100250009A8389830E9475030E94410089819A8153
:10026000892F99270E94940389810E9494030E94F8
:1002700075030E944B000E945A038B830E948803DF
:100280008B810E94D4038B8126960FB6F894DEBF33
:100290000FBECDBFCF91DF9108950F931F93DF93D2
:1002A000CF93CDB7DEB764970FB6F894DEBF0FBE1D
:1002B000CDBF9C8B8B8B19828B899C899695982FAF
:1002C0008827979587959C838B830E9475030E944E
:1002D00041008B819C81892F99270E9494038B81F7
:1002E0000E94940380E690E00E940F0409C00E94DF
:1002F000F9038A838A810E94940389818F5F8983AD
:100300008A818D3019F0898188238CF70E948803B7
:1003100080E090E0A8ECB2E48D839E83AF83B88741
:100320006D817E818F81988520E030E04AE755E439
:100330000E940106DC01CB0189879A87AB87BC87C5
:1003400011E069857A858B859C8520E030E040E866
:100350005FE30E945B0788230CF010E0112329F073
:1003600081E090E09E878D8746C011E069857A859F
:100370008B859C8520E03FEF4FE757E40E94FB060A
:1003800018160CF010E0112361F16D817E818F81D0
:10039000988520E030E040E251E40E940106DC0153
:1003A000CB01BC01CD010E942D04DC01CB019E8755
:1003B0008D8712C080E991E0988B8F878F8598890F
:1003C0008C01C8010197F1F78C01188B0F878D857F
:1003D0009E8501979E878D878D859E85009751F715
:1003E00017C069857A858B859C850E942D04DC0168
:1003F000CB019E878D878D859E859A8B898B898978
:100400009A898C01C8010197F1F78C011A8B098B2D
:1004100064960FB6F894DEBF0FBECDBFCF91DF91CB
:100420001F910F910895DF93CF9300D000D000D09B
:10043000CDB7DEB79E838D831A828D819E8196957E
:10044000982F8827979587959C838B830E947503A7
:100450000E9441008B819C81892F99270E949403DF
:100460008B810E9494030E9475030E944B0009C077
:100470000E943F03898389810E94D4038A818F5F10
:100480008A8389818D3019F08A8188238CF70E94B4
:100490005A0389830E94880326960FB6F894DEBF1C
:1004A0000FBECDBFCF91DF910895DF93CF9300D0E2
:1004B00000D000D0CDB7DEB70E94AF030E94330357
:1004C00005C0000003C0000001C0000019821A82AC
:1004D0001B8281E890E00E940F040E94F903898347
:1004E00089810E94D4038EEC90E00E940F048981E0
:1004F000813309F05CC08BED90E00E940F040E94F4
:10050000F9038A838A810E94D4038EEC90E00E94D2
:100510000F048A81813379F58AEF90E00E940F04FD
:1005200083E191E00E940F040E94F9038C838C8187
:100530000E94D4038DE191E00E940F0480E291E0DB
:100540000E940F040E94F9038D838D810E94D403C1
:100550008DE191E00E940F0487E291E00E940F0478
:100560000E94F9038E838C81882F90E06D814E81EB
:100570000E945500ABCF8A81823309F0A2CF86E377
:1005800091E00E940F040E94F9038C838C810E94E9
:10059000D4038DE191E00E940F048C81882F90E0BC
:1005A0000E944D018DE191E00E940F048FCF89815F
:1005B000823309F088CF88E491E00E940F040E9402
:1005C000F9038B838B810E94D4038EEC90E00E9410
:1005D0000F048B81813359F58AEF90E00E940F045C
:1005E00083E191E00E940F040E94F9038C838C81C7
:1005F0000E94D4038DE191E00E940F0480E291E01B
:100600000E940F040E94F9038D838D810E94D40300
:1006100085E691E00E940F048C81882F90E06D8127
:100620000E9411018DE191E00E940F044FCF8B8158
:10063000823309F04ACF86E391E00E940F040E94C2
:10064000F9038C838C810E94D4038FE691E00E9491
:100650000F048C81882F90E00E9413028DE191E0BD
:100660000E940F0433CFDF93CF93CDB7DEB780E284
:1006700090E020E2FC012083CF91DF910895DF9389
:10068000CF930F92CDB7DEB786E590E024ECFC0166
:100690002083000086E590E0FC0180818823D4F768
:1006A00083E290E0FC018081898389810F90CF9162
:1006B000DF910895DF93CF930F92CDB7DEB786E534
:1006C00090E024E8FC012083000086E590E0FC0136
:1006D00080818823D4F783E290E0FC0180818983C4
:1006E00089810F90CF91DF910895DF93CF93CDB79C
:1006F000DEB786E590E024EAFC012083000086E571
:1007000090E0FC0180818823D4F7CF91DF91089598
:10071000DF93CF93CDB7DEB786E590E024E9FC0107
:100720002083CF91DF910895DF93CF930F92CDB7C0
:10073000DEB7898383E290E02981FC01208386E58E
:1007400090E024E8FC012083000086E590E0FC01B5
:1007500080818823D4F70F90CF91DF910895DF93A4
:10076000CF9300D0CDB7DEB787E690E09A83898338
:1007700089E290E02981FC01208380E490E02981D6
:100780003A81232F3327FC0120838AE290E028E17D
:10079000FC01208380E490E026E8FC0120830F9098
:1007A0000F90CF91DF910895DF93CF930F92CDB744
:1007B000DEB7898300008BE290E0FC018081882F06
:1007C00090E0807290700097B1F38CE290E0298104
:1007D000FC01208300008BE290E0FC018081882FE7
:1007E00090E0807490700097B1F30F90CF91DF91FB
:1007F0000895DF93CF930F92CDB7DEB700008BE261
:1008000090E0FC0180818823D4F78CE290E0FC0129
:100810008081898389810F90CF91DF910895DF9343
:10082000CF9300D0CDB7DEB79A8389830BC089817F
:100830009A81FC0180810E94D40389819A8101966A
:100840009A83898389819A81FC018081882379F741
:100850000F900F90CF91DF910895EF92FF920F9339
:100860001F937B018C0120E030E040E05FE40E94B8
:100870002B0787FD11C0C801B70120E030E040E040
:100880005FE40E94D0050E948B079B01AC012050C1
:1008900030404040504806C0C801B7010E948B0755
:1008A0009B01AC01B901CA011F910F91FF90EF901C
:1008B0000895A0E0B0E0EFE5F4E00C947109FC01CC
:1008C000EA018081823008F438C1DB019C919230CA
:1008D00008F430C1843059F4943009F02EC191816C
:1008E00011968C911197981709F021C126C1943067
:1008F00009F420C19230B1F4823009F01EC1CA015E
:10090000AF0128E0DA010D90AD01DC010D92CD01BF
:100910002150C1F7DB0111968C91119791818923A8
:1009200089830AC1823009F405C1C280D380DB010A
:1009300012966D907C901397248135814681578162
:100940001496ED90FD900D911C911797C601861994
:1009500097095C0197FF04C0AA24BB24A81AB90A0E
:10096000B0E2AB16B1040CF061C0181619066CF5B4
:10097000370148010A2C04C09694879477946794B1
:100980000A94D2F781E090E0A0E0B0E00A2C04C025
:10099000880F991FAA1FBB1F0A94D2F70197A109BC
:1009A000B1098E219F21A023B123EE24FF248701CA
:1009B000E3940097A105B10519F4EE24FF24870103
:1009C000E628F728082919293CC00097D1F1CA0C5C
:1009D000DB1C39014A010A2C04C096948794779451
:1009E00067940A94D2F781E090E0A0E0B0E00A2C8E
:1009F00004C0880F991FAA1FBB1F0A94D2F7019742
:100A0000A109B10982239323A423B52321E030E077
:100A100040E050E00097A105B10519F420E030E076
:100A2000A90126293729482959290BC06C147D04AE
:100A300024F4EE24FF24870104C0630120E030E0A9
:100A4000A9018181FB019181891709F445C088239F
:100A500049F0D801C701821B930BA40BB50B9C0175
:100A6000AD0104C02E193F09400B510B57FD04C0C6
:100A70001982DB82CA820BC081E08983DB82CA8251
:100A800050954095309521953F4F4F4F5F4F2C83A8
:100A90003D834E835F830DC0880F991FAA1FBB1F24
:100AA0008C839D83AE83BF838A819B8101979B83C7
:100AB0008A838C819D81AE81BF819C01AD012150D3
:100AC0003040404050402F3FEFEF3E07EFEF4E07E2
:100AD000EFE35E0708F30BC08983DB82CA822E0D29
:100AE0003F1D401F511F2C833D834E835F8383E056
:100AF00088832C813D814E815F8157FF1DC0DA01C3
:100B0000C90181709070A070B07056954795379567
:100B10002795822B932BA42BB52B8C839D83AE839F
:100B2000BF838A819B8101969B838A8305C0EBE703
:100B3000F1E003C0FB0101C0FE01CF01CDB7DEB77C
:100B4000EEE00C948D09A0E2B0E0E9EAF5E00C9447
:100B5000790969837A838B839C832D833E834F83BA
:100B6000588789E0E82EF12CEC0EFD1ECE0101968F
:100B7000B7010E94AB088E010F5E1F4FCE01059694
:100B8000B8010E94AB08C701B801AE01475E5F4FD4
:100B90000E9459040E94DD07A096E6E00C94950996
:100BA000A0E2B0E0E6EDF5E00C94790969837A8380
:100BB0008B839C832D833E834F8358878E01075FF1
:100BC0001F4FCE010196B8010E94AB0891E1E92EBA
:100BD000F12CEC0EFD1ECE010596B7010E94AB086C
:100BE0008A8991E089278A8BC801B701AE01475EE7
:100BF0005F4F0E9459040E94DD07A096E6E00C9426
:100C00009509A0E2B0E0E7E0F6E00C946D09698395
:100C10007A838B839C832D833E834F835887CE01B9
:100C20000196BE01675F7F4F0E94AB08CE0105961B
:100C3000BE016F5E7F4F0E94AB089985923078F0BD
:100C400089898230C0F0943019F4823041F4CBC0ED
:100C5000843019F4923079F4C6C0923051F481E0B6
:100C60002A859A89291709F480E08A87CE01099696
:100C7000BCC0823051F481E02A859A89291709F491
:100C800080E08A8BCE014196B0C06D847E848F84D3
:100C90009888ED88FE880F89188DE0E2F0E080E00A
:100CA00090E0DC01AA24BB24650120E030E0A9012A
:100CB000B3016170707061157105D1F02E0D3F1D8B
:100CC000401F511F15012601280E391E4A1E5B1EAA
:100CD00081E090E0A0E0B0E02E153F05400751070D
:100CE00018F080E090E0DC01820D931DA41DB51D7D
:100CF000AA0CBB1CCC1CDD1C17FF09C061E0262E12
:100D0000312C412C512CA228B328C428D528319746
:100D100049F0EE0CFF1C001F111F969487947794E6
:100D20006794C6CF6B897C89EB85FC856E0F7F1F2E
:100D30006E5F7F4F7C8F6B8F61E0EA857A89E71762
:100D400009F460E06A8F6B8D7C8D10C0FC01E1704E
:100D5000F070309729F0569547953795279550684C
:100D6000B695A795979587956F5F7F4FB7FDEECFA7
:100D70000CC0880F991FAA1FBB1F57FD8160220F4F
:100D8000331F441F551F615070408030E0E09E07C4
:100D9000E0E0AE07E0E4BE0760F36B8F7C8F6FE7A7
:100DA000E62EF12C012D112DE822F9220A231B2316
:100DB00060E4E616F1040105110561F487FD0AC03F
:100DC000211531054105510529F0805C9F4FAF4F3A
:100DD000BF4F80788D8F9E8FAF8FB8A383E0898FB0
:100DE000CE01499602C08BE791E00E94DD07A096F4
:100DF000E2E10C948909A8E1B0E0E1E0F7E00C94AD
:100E0000790969837A838B839C832D833E834F8307
:100E100058878E01075F1F4FCE010196B8010E94CF
:100E2000AB0881E1E82EF12CEC0EFD1ECE010596FB
:100E3000B7010E94AB088985823040F089898230F1
:100E400028F0C801B7010E94140901C08FEF68960D
:100E5000E6E00C949509A8E1B0E0E1E3F7E00C943A
:100E6000790969837A838B839C832D833E834F83A7
:100E700058878E01075F1F4FCE010196B8010E946F
:100E8000AB0881E1E82EF12CEC0EFD1ECE0105969B
:100E9000B7010E94AB088985823040F08989823091
:100EA00028F0C801B7010E94140901C08FEF6896AD
:100EB000E6E00C949509A8E1B0E0E1E6F7E00C94D7
:100EC000790969837A838B839C832D833E834F8347
:100ED00058878E01075F1F4FCE010196B8010E940F
:100EE000AB0881E1E82EF12CEC0EFD1ECE0105963B
:100EF000B7010E94AB088985823040F08989823031
:100F000028F0C801B7010E94140901C081E0689669
:100F1000E6E00C949509ACE0B0E0E1E9F7E00C9470
:100F20007D0969837A838B839C83CE010196BE0100
:100F30006B5F7F4F0E94AB088D81823081F18230E0
:100F400070F1843021F48E81882369F10AC02F81E9
:100F5000388537FD24C06E812F3131053CF0662382
:100F600011F120E030E040E050E821C08EE190E057
:100F7000821B930B29853A854B855C8504C0569569
:100F80004795379527958A95D2F7662381F0509536
:100F90004095309521953F4F4F4F5F4F08C020E05F
:100FA00030E0A90104C02FEF3FEF4FEF5FE7B90139
:100FB000CA012C96E2E00C949909EF92FF920F93EC
:100FC0001F93CF93DF93FC012481358146815781A4
:100FD00061818081823020F44061EFEFF0E0A3C0B6
:100FE000843009F49BC0823009F492C02115310588
:100FF0004105510509F48FC00280F381E02D8FEF88
:10100000E238F8070CF05AC0C2E8DFEFCE1BDF0B66
:10101000CA31D1056CF579018A010C2E04C01695F0
:101020000795F794E7940A94D2F781E090E0A0E066
:10103000B0E00C2E04C0880F991FAA1FBB1F0A9492
:10104000D2F70197A109B10982239323A423B523E1
:1010500021E030E040E050E00097A105B10519F42F
:1010600020E030E0A9012E293F29402B512B03C05D
:1010700020E030E0A901DA01C9018F779070A070FB
:10108000B07080349105A105B10539F427FF09C07E
:10109000205C3F4F4F4F5F4F04C0215C3F4F4F4F8D
:1010A0005F4FE1E0F0E0203080E0380780E0480763
:1010B00080E4580728F5E0E0F0E022C0E038F105D0
:1010C0006CF5E158FF4FDA01C9018F779070A0707D
:1010D000B07080349105A105B10539F427FF09C02E
:1010E000205C3F4F4F4F5F4F04C0215C3F4F4F4F3D
:1010F0005F4F57FF05C05695479537952795319611
:1011000087E056954795379527958A95D1F70BC077
:10111000E0E0F0E005C0E0E0F0E005C0EFEFF0E077
:1011200020E030E0A9018E2F879588278795942F9E
:101130009F77679566276795E695E22EA92FA82BDE
:10114000FE2FF62B622F732F8A2F9F2FCDB7DEB77E
:10115000E6E00C949509DC01FB012C9111963C9181
:10116000119712968C911297482F4F7750E0982F35
:10117000991F9927991F13966C911397862F880FA3
:10118000892B90E0661F6627661F6183009739F5FB
:10119000211531054105510511F482E029C082E88D
:1011A0009FEF9383828367E0220F331F441F551FF5
:1011B0006A95D1F783E0808309C0220F331F441F53
:1011C000551F82819381019793838283203080E031
:1011D000380780E0480780E4580778F320C08F3F45
:1011E000910579F4211531054105510519F484E083
:1011F0008083089544FF03C081E0808310C0108283
:101200000EC08F5790409383828383E0808387E072
:10121000220F331F441F551F8A95D1F75064248332
:101220003583468357830895FC01DB01908192301A
:1012300008F449C08C91823008F445C0943051F4D0
:1012400061818430B1F511962C91119730E0261B05
:10125000310941C0843021F0923041F48230B1F143
:1012600011968C9111978823A1F12DC06181823054
:1012700001F111968C9111976817D9F4228133816D
:1012800012968D919C9113978217930794F02817CB
:101290003907BCF0248135814681578114968D91A0
:1012A0009D910D90BC91A02D82179307A407B507BF
:1012B00018F4662341F00DC0281739074A075B0769
:1012C00028F4662331F021E030E005C020E030E072
:1012D00002C02FEF3FEFC90108952F923F924F9226
:1012E0005F926F927F928F929F92AF92BF92CF92B6
:1012F000DF92EF92FF920F931F93CF93DF93CDB7BF
:10130000DEB7CA1BDB0B0FB6F894DEBF0FBECDBF36
:1013100009942A88398848885F846E847D848C8407
:101320009B84AA84B984C884DF80EE80FD800C8110
:101330001B81AA81B981CE0FD11D0FB6F894DEBFF3
:0C1340000FBECDBFED010895F894FFCF63
:10134C000A0D507265737320456E74657220616668
:10135C00746572206461746120656E7472790D0A13
:10136C000053454C45435420594F55522043484F48
:10137C0049434553204143434F5244494E4720541F
:10138C004F205448452050524F4D50540A0D312E89
:10139C00454550524F4D2057726974650A0D322ED7
:1013AC00454550524F4D20526561640D0A002E2068
:1013BC0053656C65637465640D0A000A0D312E4229
:1013CC007974652077726974650A0D322E506167E5
:1013DC00652077726974650D0A000A0D456E746597
:1013EC00722070616765206E6F20262062797465AB
:1013FC000D0A0050616765204E6F3A09000D0A0016
:10140C00427974653A09000A0D456E746572206460
:10141C006174610D0A000A0D456E7465722070616D
:10142C006765206E6F3A09000A0D312E427974659A
:10143C0020726561640A0D322E50616765207265F9
:10144C0061640D0A000D0A526573756C743A000DD7
:10145C000A526573756C743A200900000000000094
:04146C00000000007C
:00000001FF
